{
	"Learning_Smart-Contract-Programmer/ForAndWhileLoops/SumAllToTen-ForLoop.sol": {
		"ExerciseOneForLoop": {
			"abi": [
				{
					"inputs": [],
					"name": "loops",
					"outputs": [],
					"stateMutability": "nonpayable",
					"type": "function"
				},
				{
					"inputs": [],
					"name": "sum",
					"outputs": [
						{
							"internalType": "uint256",
							"name": "",
							"type": "uint256"
						}
					],
					"stateMutability": "view",
					"type": "function"
				}
			],
			"devdoc": {
				"kind": "dev",
				"methods": {},
				"version": 1
			},
			"evm": {
				"assembly": "    /* \"Learning_Smart-Contract-Programmer/ForAndWhileLoops/SumAllToTen-ForLoop.sol\":127:299  contract ExerciseOneForLoop {... */\n  mstore(0x40, 0x80)\n  callvalue\n  dup1\n  iszero\n  tag_1\n  jumpi\n  0x00\n  dup1\n  revert\ntag_1:\n  pop\n  dataSize(sub_0)\n  dup1\n  dataOffset(sub_0)\n  0x00\n  codecopy\n  0x00\n  return\nstop\n\nsub_0: assembly {\n        /* \"Learning_Smart-Contract-Programmer/ForAndWhileLoops/SumAllToTen-ForLoop.sol\":127:299  contract ExerciseOneForLoop {... */\n      mstore(0x40, 0x80)\n      callvalue\n      dup1\n      iszero\n      tag_1\n      jumpi\n      0x00\n      dup1\n      revert\n    tag_1:\n      pop\n      jumpi(tag_2, lt(calldatasize, 0x04))\n      shr(0xe0, calldataload(0x00))\n      dup1\n      0x853255cc\n      eq\n      tag_3\n      jumpi\n      dup1\n      0x938b9ceb\n      eq\n      tag_4\n      jumpi\n    tag_2:\n      0x00\n      dup1\n      revert\n        /* \"Learning_Smart-Contract-Programmer/ForAndWhileLoops/SumAllToTen-ForLoop.sol\":162:177  uint public sum */\n    tag_3:\n      tag_5\n      tag_6\n      jump\t// in\n    tag_5:\n      mload(0x40)\n      tag_7\n      swap2\n      swap1\n      tag_8\n      jump\t// in\n    tag_7:\n      mload(0x40)\n      dup1\n      swap2\n      sub\n      swap1\n      return\n        /* \"Learning_Smart-Contract-Programmer/ForAndWhileLoops/SumAllToTen-ForLoop.sol\":186:296  function loops() external {... */\n    tag_4:\n      tag_9\n      tag_10\n      jump\t// in\n    tag_9:\n      stop\n        /* \"Learning_Smart-Contract-Programmer/ForAndWhileLoops/SumAllToTen-ForLoop.sol\":162:177  uint public sum */\n    tag_6:\n      sload(0x00)\n      dup2\n      jump\t// out\n        /* \"Learning_Smart-Contract-Programmer/ForAndWhileLoops/SumAllToTen-ForLoop.sol\":186:296  function loops() external {... */\n    tag_10:\n        /* \"Learning_Smart-Contract-Programmer/ForAndWhileLoops/SumAllToTen-ForLoop.sol\":232:238  uint i */\n      0x00\n        /* \"Learning_Smart-Contract-Programmer/ForAndWhileLoops/SumAllToTen-ForLoop.sol\":227:289  for (uint i = 0; i <= 10; i++) {... */\n    tag_12:\n        /* \"Learning_Smart-Contract-Programmer/ForAndWhileLoops/SumAllToTen-ForLoop.sol\":249:251  10 */\n      0x0a\n        /* \"Learning_Smart-Contract-Programmer/ForAndWhileLoops/SumAllToTen-ForLoop.sol\":244:245  i */\n      dup2\n        /* \"Learning_Smart-Contract-Programmer/ForAndWhileLoops/SumAllToTen-ForLoop.sol\":244:251  i <= 10 */\n      gt\n        /* \"Learning_Smart-Contract-Programmer/ForAndWhileLoops/SumAllToTen-ForLoop.sol\":227:289  for (uint i = 0; i <= 10; i++) {... */\n      tag_13\n      jumpi\n        /* \"Learning_Smart-Contract-Programmer/ForAndWhileLoops/SumAllToTen-ForLoop.sol\":276:277  i */\n      dup1\n        /* \"Learning_Smart-Contract-Programmer/ForAndWhileLoops/SumAllToTen-ForLoop.sol\":269:272  sum */\n      0x00\n      dup1\n        /* \"Learning_Smart-Contract-Programmer/ForAndWhileLoops/SumAllToTen-ForLoop.sol\":269:277  sum += i */\n      dup3\n      dup3\n      sload\n      tag_15\n      swap2\n      swap1\n      tag_16\n      jump\t// in\n    tag_15:\n      swap3\n      pop\n      pop\n      dup2\n      swap1\n      sstore\n      pop\n        /* \"Learning_Smart-Contract-Programmer/ForAndWhileLoops/SumAllToTen-ForLoop.sol\":253:256  i++ */\n      dup1\n      dup1\n      tag_17\n      swap1\n      tag_18\n      jump\t// in\n    tag_17:\n      swap2\n      pop\n      pop\n        /* \"Learning_Smart-Contract-Programmer/ForAndWhileLoops/SumAllToTen-ForLoop.sol\":227:289  for (uint i = 0; i <= 10; i++) {... */\n      jump(tag_12)\n    tag_13:\n      pop\n        /* \"Learning_Smart-Contract-Programmer/ForAndWhileLoops/SumAllToTen-ForLoop.sol\":186:296  function loops() external {... */\n      jump\t// out\n        /* \"#utility.yul\":7:84   */\n    tag_19:\n        /* \"#utility.yul\":44:51   */\n      0x00\n        /* \"#utility.yul\":73:78   */\n      dup2\n        /* \"#utility.yul\":62:78   */\n      swap1\n      pop\n        /* \"#utility.yul\":7:84   */\n      swap2\n      swap1\n      pop\n      jump\t// out\n        /* \"#utility.yul\":90:208   */\n    tag_20:\n        /* \"#utility.yul\":177:201   */\n      tag_25\n        /* \"#utility.yul\":195:200   */\n      dup2\n        /* \"#utility.yul\":177:201   */\n      tag_19\n      jump\t// in\n    tag_25:\n        /* \"#utility.yul\":172:175   */\n      dup3\n        /* \"#utility.yul\":165:202   */\n      mstore\n        /* \"#utility.yul\":90:208   */\n      pop\n      pop\n      jump\t// out\n        /* \"#utility.yul\":214:436   */\n    tag_8:\n        /* \"#utility.yul\":307:311   */\n      0x00\n        /* \"#utility.yul\":345:347   */\n      0x20\n        /* \"#utility.yul\":334:343   */\n      dup3\n        /* \"#utility.yul\":330:348   */\n      add\n        /* \"#utility.yul\":322:348   */\n      swap1\n      pop\n        /* \"#utility.yul\":358:429   */\n      tag_27\n        /* \"#utility.yul\":426:427   */\n      0x00\n        /* \"#utility.yul\":415:424   */\n      dup4\n        /* \"#utility.yul\":411:428   */\n      add\n        /* \"#utility.yul\":402:408   */\n      dup5\n        /* \"#utility.yul\":358:429   */\n      tag_20\n      jump\t// in\n    tag_27:\n        /* \"#utility.yul\":214:436   */\n      swap3\n      swap2\n      pop\n      pop\n      jump\t// out\n        /* \"#utility.yul\":442:622   */\n    tag_21:\n        /* \"#utility.yul\":490:567   */\n      0x4e487b7100000000000000000000000000000000000000000000000000000000\n        /* \"#utility.yul\":487:488   */\n      0x00\n        /* \"#utility.yul\":480:568   */\n      mstore\n        /* \"#utility.yul\":587:591   */\n      0x11\n        /* \"#utility.yul\":584:585   */\n      0x04\n        /* \"#utility.yul\":577:592   */\n      mstore\n        /* \"#utility.yul\":611:615   */\n      0x24\n        /* \"#utility.yul\":608:609   */\n      0x00\n        /* \"#utility.yul\":601:616   */\n      revert\n        /* \"#utility.yul\":628:933   */\n    tag_16:\n        /* \"#utility.yul\":668:671   */\n      0x00\n        /* \"#utility.yul\":687:707   */\n      tag_30\n        /* \"#utility.yul\":705:706   */\n      dup3\n        /* \"#utility.yul\":687:707   */\n      tag_19\n      jump\t// in\n    tag_30:\n        /* \"#utility.yul\":682:707   */\n      swap2\n      pop\n        /* \"#utility.yul\":721:741   */\n      tag_31\n        /* \"#utility.yul\":739:740   */\n      dup4\n        /* \"#utility.yul\":721:741   */\n      tag_19\n      jump\t// in\n    tag_31:\n        /* \"#utility.yul\":716:741   */\n      swap3\n      pop\n        /* \"#utility.yul\":875:876   */\n      dup3\n        /* \"#utility.yul\":807:873   */\n      0xffffffffffffffffffffffffffffffffffffffffffffffffffffffffffffffff\n        /* \"#utility.yul\":803:877   */\n      sub\n        /* \"#utility.yul\":800:801   */\n      dup3\n        /* \"#utility.yul\":797:878   */\n      gt\n        /* \"#utility.yul\":794:901   */\n      iszero\n      tag_32\n      jumpi\n        /* \"#utility.yul\":881:899   */\n      tag_33\n      tag_21\n      jump\t// in\n    tag_33:\n        /* \"#utility.yul\":794:901   */\n    tag_32:\n        /* \"#utility.yul\":925:926   */\n      dup3\n        /* \"#utility.yul\":922:923   */\n      dup3\n        /* \"#utility.yul\":918:927   */\n      add\n        /* \"#utility.yul\":911:927   */\n      swap1\n      pop\n        /* \"#utility.yul\":628:933   */\n      swap3\n      swap2\n      pop\n      pop\n      jump\t// out\n        /* \"#utility.yul\":939:1172   */\n    tag_18:\n        /* \"#utility.yul\":978:981   */\n      0x00\n        /* \"#utility.yul\":1001:1025   */\n      tag_35\n        /* \"#utility.yul\":1019:1024   */\n      dup3\n        /* \"#utility.yul\":1001:1025   */\n      tag_19\n      jump\t// in\n    tag_35:\n        /* \"#utility.yul\":992:1025   */\n      swap2\n      pop\n        /* \"#utility.yul\":1047:1113   */\n      0xffffffffffffffffffffffffffffffffffffffffffffffffffffffffffffffff\n        /* \"#utility.yul\":1040:1045   */\n      dup3\n        /* \"#utility.yul\":1037:1114   */\n      eq\n        /* \"#utility.yul\":1034:1137   */\n      iszero\n      tag_36\n      jumpi\n        /* \"#utility.yul\":1117:1135   */\n      tag_37\n      tag_21\n      jump\t// in\n    tag_37:\n        /* \"#utility.yul\":1034:1137   */\n    tag_36:\n        /* \"#utility.yul\":1164:1165   */\n      0x01\n        /* \"#utility.yul\":1157:1162   */\n      dup3\n        /* \"#utility.yul\":1153:1166   */\n      add\n        /* \"#utility.yul\":1146:1166   */\n      swap1\n      pop\n        /* \"#utility.yul\":939:1172   */\n      swap2\n      swap1\n      pop\n      jump\t// out\n\n    auxdata: 0xa264697066735822122034c1f7ed6b33def33f06b52cf5e2602f1a743cf02b6fb587ed3e9b981d269d4264736f6c63430008080033\n}\n",
				"bytecode": {
					"linkReferences": {},
					"object": "608060405234801561001057600080fd5b506101da806100206000396000f3fe608060405234801561001057600080fd5b50600436106100365760003560e01c8063853255cc1461003b578063938b9ceb14610059575b600080fd5b610043610063565b60405161005091906100bb565b60405180910390f35b610061610069565b005b60005481565b60005b600a811161009f57806000808282546100859190610105565b9250508190555080806100979061015b565b91505061006c565b50565b6000819050919050565b6100b5816100a2565b82525050565b60006020820190506100d060008301846100ac565b92915050565b7f4e487b7100000000000000000000000000000000000000000000000000000000600052601160045260246000fd5b6000610110826100a2565b915061011b836100a2565b9250827fffffffffffffffffffffffffffffffffffffffffffffffffffffffffffffffff038211156101505761014f6100d6565b5b828201905092915050565b6000610166826100a2565b91507fffffffffffffffffffffffffffffffffffffffffffffffffffffffffffffffff821415610199576101986100d6565b5b60018201905091905056fea264697066735822122034c1f7ed6b33def33f06b52cf5e2602f1a743cf02b6fb587ed3e9b981d269d4264736f6c63430008080033",
					"opcodes": "PUSH1 0x80 PUSH1 0x40 MSTORE CALLVALUE DUP1 ISZERO PUSH2 0x10 JUMPI PUSH1 0x0 DUP1 REVERT JUMPDEST POP PUSH2 0x1DA DUP1 PUSH2 0x20 PUSH1 0x0 CODECOPY PUSH1 0x0 RETURN INVALID PUSH1 0x80 PUSH1 0x40 MSTORE CALLVALUE DUP1 ISZERO PUSH2 0x10 JUMPI PUSH1 0x0 DUP1 REVERT JUMPDEST POP PUSH1 0x4 CALLDATASIZE LT PUSH2 0x36 JUMPI PUSH1 0x0 CALLDATALOAD PUSH1 0xE0 SHR DUP1 PUSH4 0x853255CC EQ PUSH2 0x3B JUMPI DUP1 PUSH4 0x938B9CEB EQ PUSH2 0x59 JUMPI JUMPDEST PUSH1 0x0 DUP1 REVERT JUMPDEST PUSH2 0x43 PUSH2 0x63 JUMP JUMPDEST PUSH1 0x40 MLOAD PUSH2 0x50 SWAP2 SWAP1 PUSH2 0xBB JUMP JUMPDEST PUSH1 0x40 MLOAD DUP1 SWAP2 SUB SWAP1 RETURN JUMPDEST PUSH2 0x61 PUSH2 0x69 JUMP JUMPDEST STOP JUMPDEST PUSH1 0x0 SLOAD DUP2 JUMP JUMPDEST PUSH1 0x0 JUMPDEST PUSH1 0xA DUP2 GT PUSH2 0x9F JUMPI DUP1 PUSH1 0x0 DUP1 DUP3 DUP3 SLOAD PUSH2 0x85 SWAP2 SWAP1 PUSH2 0x105 JUMP JUMPDEST SWAP3 POP POP DUP2 SWAP1 SSTORE POP DUP1 DUP1 PUSH2 0x97 SWAP1 PUSH2 0x15B JUMP JUMPDEST SWAP2 POP POP PUSH2 0x6C JUMP JUMPDEST POP JUMP JUMPDEST PUSH1 0x0 DUP2 SWAP1 POP SWAP2 SWAP1 POP JUMP JUMPDEST PUSH2 0xB5 DUP2 PUSH2 0xA2 JUMP JUMPDEST DUP3 MSTORE POP POP JUMP JUMPDEST PUSH1 0x0 PUSH1 0x20 DUP3 ADD SWAP1 POP PUSH2 0xD0 PUSH1 0x0 DUP4 ADD DUP5 PUSH2 0xAC JUMP JUMPDEST SWAP3 SWAP2 POP POP JUMP JUMPDEST PUSH32 0x4E487B7100000000000000000000000000000000000000000000000000000000 PUSH1 0x0 MSTORE PUSH1 0x11 PUSH1 0x4 MSTORE PUSH1 0x24 PUSH1 0x0 REVERT JUMPDEST PUSH1 0x0 PUSH2 0x110 DUP3 PUSH2 0xA2 JUMP JUMPDEST SWAP2 POP PUSH2 0x11B DUP4 PUSH2 0xA2 JUMP JUMPDEST SWAP3 POP DUP3 PUSH32 0xFFFFFFFFFFFFFFFFFFFFFFFFFFFFFFFFFFFFFFFFFFFFFFFFFFFFFFFFFFFFFFFF SUB DUP3 GT ISZERO PUSH2 0x150 JUMPI PUSH2 0x14F PUSH2 0xD6 JUMP JUMPDEST JUMPDEST DUP3 DUP3 ADD SWAP1 POP SWAP3 SWAP2 POP POP JUMP JUMPDEST PUSH1 0x0 PUSH2 0x166 DUP3 PUSH2 0xA2 JUMP JUMPDEST SWAP2 POP PUSH32 0xFFFFFFFFFFFFFFFFFFFFFFFFFFFFFFFFFFFFFFFFFFFFFFFFFFFFFFFFFFFFFFFF DUP3 EQ ISZERO PUSH2 0x199 JUMPI PUSH2 0x198 PUSH2 0xD6 JUMP JUMPDEST JUMPDEST PUSH1 0x1 DUP3 ADD SWAP1 POP SWAP2 SWAP1 POP JUMP INVALID LOG2 PUSH5 0x6970667358 0x22 SLT KECCAK256 CALLVALUE 0xC1 0xF7 0xED PUSH12 0x33DEF33F06B52CF5E2602F1A PUSH21 0x3CF02B6FB587ED3E9B981D269D4264736F6C634300 ADDMOD ADDMOD STOP CALLER "
				},
				"gasEstimates": {
					"creation": {
						"codeDepositCost": "94800",
						"executionCost": "141",
						"totalCost": "94941"
					},
					"external": {
						"loops()": "infinite",
						"sum()": "2407"
					}
				},
				"methodIdentifiers": {
					"loops()": "938b9ceb",
					"sum()": "853255cc"
				}
			},
			"storageLayout": {
				"storage": [
					{
						"astId": 3,
						"contract": "Learning_Smart-Contract-Programmer/ForAndWhileLoops/SumAllToTen-ForLoop.sol:ExerciseOneForLoop",
						"label": "sum",
						"offset": 0,
						"slot": "0",
						"type": "t_uint256"
					}
				],
				"types": {
					"t_uint256": {
						"encoding": "inplace",
						"label": "uint256",
						"numberOfBytes": "32"
					}
				}
			},
			"userdoc": {
				"kind": "user",
				"methods": {},
				"version": 1
			}
		}
	}
}