{
	"Learning_Smart-Contract-Programmer/Variables/GlobalVariable.sol": {
		"GlobalVariable": {
			"abi": [
				{
					"inputs": [],
					"name": "globalVars",
					"outputs": [
						{
							"internalType": "address",
							"name": "",
							"type": "address"
						},
						{
							"internalType": "uint256",
							"name": "",
							"type": "uint256"
						},
						{
							"internalType": "uint256",
							"name": "",
							"type": "uint256"
						}
					],
					"stateMutability": "view",
					"type": "function"
				}
			],
			"devdoc": {
				"kind": "dev",
				"methods": {},
				"version": 1
			},
			"evm": {
				"assembly": "    /* \"Learning_Smart-Contract-Programmer/Variables/GlobalVariable.sol\":171:588  contract GlobalVariable {... */\n  mstore(0x40, 0x80)\n  callvalue\n  dup1\n  iszero\n  tag_1\n  jumpi\n  0x00\n  dup1\n  revert\ntag_1:\n  pop\n  dataSize(sub_0)\n  dup1\n  dataOffset(sub_0)\n  0x00\n  codecopy\n  0x00\n  return\nstop\n\nsub_0: assembly {\n        /* \"Learning_Smart-Contract-Programmer/Variables/GlobalVariable.sol\":171:588  contract GlobalVariable {... */\n      mstore(0x40, 0x80)\n      callvalue\n      dup1\n      iszero\n      tag_1\n      jumpi\n      0x00\n      dup1\n      revert\n    tag_1:\n      pop\n      jumpi(tag_2, lt(calldatasize, 0x04))\n      shr(0xe0, calldataload(0x00))\n      dup1\n      0x7e6230f3\n      eq\n      tag_3\n      jumpi\n    tag_2:\n      0x00\n      dup1\n      revert\n        /* \"Learning_Smart-Contract-Programmer/Variables/GlobalVariable.sol\":202:585  function globalVars() external view returns (address, uint, uint) {... */\n    tag_3:\n      tag_4\n      tag_5\n      jump\t// in\n    tag_4:\n      mload(0x40)\n      tag_6\n      swap4\n      swap3\n      swap2\n      swap1\n      tag_7\n      jump\t// in\n    tag_6:\n      mload(0x40)\n      dup1\n      swap2\n      sub\n      swap1\n      return\n    tag_5:\n        /* \"Learning_Smart-Contract-Programmer/Variables/GlobalVariable.sol\":247:254  address */\n      0x00\n        /* \"Learning_Smart-Contract-Programmer/Variables/GlobalVariable.sol\":256:260  uint */\n      dup1\n        /* \"Learning_Smart-Contract-Programmer/Variables/GlobalVariable.sol\":262:266  uint */\n      0x00\n        /* \"Learning_Smart-Contract-Programmer/Variables/GlobalVariable.sol\":279:293  address sender */\n      dup1\n        /* \"Learning_Smart-Contract-Programmer/Variables/GlobalVariable.sol\":296:306  msg.sender */\n      caller\n        /* \"Learning_Smart-Contract-Programmer/Variables/GlobalVariable.sol\":279:306  address sender = msg.sender */\n      swap1\n      pop\n        /* \"Learning_Smart-Contract-Programmer/Variables/GlobalVariable.sol\":362:376  uint timestamp */\n      0x00\n        /* \"Learning_Smart-Contract-Programmer/Variables/GlobalVariable.sol\":379:394  block.timestamp */\n      timestamp\n        /* \"Learning_Smart-Contract-Programmer/Variables/GlobalVariable.sol\":362:394  uint timestamp = block.timestamp */\n      swap1\n      pop\n        /* \"Learning_Smart-Contract-Programmer/Variables/GlobalVariable.sol\":467:480  uint blockNum */\n      0x00\n        /* \"Learning_Smart-Contract-Programmer/Variables/GlobalVariable.sol\":483:495  block.number */\n      number\n        /* \"Learning_Smart-Contract-Programmer/Variables/GlobalVariable.sol\":467:495  uint blockNum = block.number */\n      swap1\n      pop\n        /* \"Learning_Smart-Contract-Programmer/Variables/GlobalVariable.sol\":549:555  sender */\n      dup3\n        /* \"Learning_Smart-Contract-Programmer/Variables/GlobalVariable.sol\":557:566  timestamp */\n      dup3\n        /* \"Learning_Smart-Contract-Programmer/Variables/GlobalVariable.sol\":568:576  blockNum */\n      dup3\n        /* \"Learning_Smart-Contract-Programmer/Variables/GlobalVariable.sol\":541:577  return (sender, timestamp, blockNum) */\n      swap6\n      pop\n      swap6\n      pop\n      swap6\n      pop\n      pop\n      pop\n      pop\n        /* \"Learning_Smart-Contract-Programmer/Variables/GlobalVariable.sol\":202:585  function globalVars() external view returns (address, uint, uint) {... */\n      swap1\n      swap2\n      swap3\n      jump\t// out\n        /* \"#utility.yul\":7:133   */\n    tag_9:\n        /* \"#utility.yul\":44:51   */\n      0x00\n        /* \"#utility.yul\":84:126   */\n      0xffffffffffffffffffffffffffffffffffffffff\n        /* \"#utility.yul\":77:82   */\n      dup3\n        /* \"#utility.yul\":73:127   */\n      and\n        /* \"#utility.yul\":62:127   */\n      swap1\n      pop\n        /* \"#utility.yul\":7:133   */\n      swap2\n      swap1\n      pop\n      jump\t// out\n        /* \"#utility.yul\":139:235   */\n    tag_10:\n        /* \"#utility.yul\":176:183   */\n      0x00\n        /* \"#utility.yul\":205:229   */\n      tag_17\n        /* \"#utility.yul\":223:228   */\n      dup3\n        /* \"#utility.yul\":205:229   */\n      tag_9\n      jump\t// in\n    tag_17:\n        /* \"#utility.yul\":194:229   */\n      swap1\n      pop\n        /* \"#utility.yul\":139:235   */\n      swap2\n      swap1\n      pop\n      jump\t// out\n        /* \"#utility.yul\":241:359   */\n    tag_11:\n        /* \"#utility.yul\":328:352   */\n      tag_19\n        /* \"#utility.yul\":346:351   */\n      dup2\n        /* \"#utility.yul\":328:352   */\n      tag_10\n      jump\t// in\n    tag_19:\n        /* \"#utility.yul\":323:326   */\n      dup3\n        /* \"#utility.yul\":316:353   */\n      mstore\n        /* \"#utility.yul\":241:359   */\n      pop\n      pop\n      jump\t// out\n        /* \"#utility.yul\":365:442   */\n    tag_12:\n        /* \"#utility.yul\":402:409   */\n      0x00\n        /* \"#utility.yul\":431:436   */\n      dup2\n        /* \"#utility.yul\":420:436   */\n      swap1\n      pop\n        /* \"#utility.yul\":365:442   */\n      swap2\n      swap1\n      pop\n      jump\t// out\n        /* \"#utility.yul\":448:566   */\n    tag_13:\n        /* \"#utility.yul\":535:559   */\n      tag_22\n        /* \"#utility.yul\":553:558   */\n      dup2\n        /* \"#utility.yul\":535:559   */\n      tag_12\n      jump\t// in\n    tag_22:\n        /* \"#utility.yul\":530:533   */\n      dup3\n        /* \"#utility.yul\":523:560   */\n      mstore\n        /* \"#utility.yul\":448:566   */\n      pop\n      pop\n      jump\t// out\n        /* \"#utility.yul\":572:1014   */\n    tag_7:\n        /* \"#utility.yul\":721:725   */\n      0x00\n        /* \"#utility.yul\":759:761   */\n      0x60\n        /* \"#utility.yul\":748:757   */\n      dup3\n        /* \"#utility.yul\":744:762   */\n      add\n        /* \"#utility.yul\":736:762   */\n      swap1\n      pop\n        /* \"#utility.yul\":772:843   */\n      tag_24\n        /* \"#utility.yul\":840:841   */\n      0x00\n        /* \"#utility.yul\":829:838   */\n      dup4\n        /* \"#utility.yul\":825:842   */\n      add\n        /* \"#utility.yul\":816:822   */\n      dup7\n        /* \"#utility.yul\":772:843   */\n      tag_11\n      jump\t// in\n    tag_24:\n        /* \"#utility.yul\":853:925   */\n      tag_25\n        /* \"#utility.yul\":921:923   */\n      0x20\n        /* \"#utility.yul\":910:919   */\n      dup4\n        /* \"#utility.yul\":906:924   */\n      add\n        /* \"#utility.yul\":897:903   */\n      dup6\n        /* \"#utility.yul\":853:925   */\n      tag_13\n      jump\t// in\n    tag_25:\n        /* \"#utility.yul\":935:1007   */\n      tag_26\n        /* \"#utility.yul\":1003:1005   */\n      0x40\n        /* \"#utility.yul\":992:1001   */\n      dup4\n        /* \"#utility.yul\":988:1006   */\n      add\n        /* \"#utility.yul\":979:985   */\n      dup5\n        /* \"#utility.yul\":935:1007   */\n      tag_13\n      jump\t// in\n    tag_26:\n        /* \"#utility.yul\":572:1014   */\n      swap5\n      swap4\n      pop\n      pop\n      pop\n      pop\n      jump\t// out\n\n    auxdata: 0xa2646970667358221220529a41c0db4e85939ed12168ffc9c84f99ee5380650a188817fba82e4183a8ea64736f6c63430008080033\n}\n",
				"bytecode": {
					"linkReferences": {},
					"object": "608060405234801561001057600080fd5b50610128806100206000396000f3fe6080604052348015600f57600080fd5b506004361060285760003560e01c80637e6230f314602d575b600080fd5b60336049565b60405160409392919060c1565b60405180910390f35b60008060008033905060004290506000439050828282955095509550505050909192565b600073ffffffffffffffffffffffffffffffffffffffff82169050919050565b6000609682606d565b9050919050565b60a481608d565b82525050565b6000819050919050565b60bb8160aa565b82525050565b600060608201905060d46000830186609d565b60df602083018560b4565b60ea604083018460b4565b94935050505056fea2646970667358221220529a41c0db4e85939ed12168ffc9c84f99ee5380650a188817fba82e4183a8ea64736f6c63430008080033",
					"opcodes": "PUSH1 0x80 PUSH1 0x40 MSTORE CALLVALUE DUP1 ISZERO PUSH2 0x10 JUMPI PUSH1 0x0 DUP1 REVERT JUMPDEST POP PUSH2 0x128 DUP1 PUSH2 0x20 PUSH1 0x0 CODECOPY PUSH1 0x0 RETURN INVALID PUSH1 0x80 PUSH1 0x40 MSTORE CALLVALUE DUP1 ISZERO PUSH1 0xF JUMPI PUSH1 0x0 DUP1 REVERT JUMPDEST POP PUSH1 0x4 CALLDATASIZE LT PUSH1 0x28 JUMPI PUSH1 0x0 CALLDATALOAD PUSH1 0xE0 SHR DUP1 PUSH4 0x7E6230F3 EQ PUSH1 0x2D JUMPI JUMPDEST PUSH1 0x0 DUP1 REVERT JUMPDEST PUSH1 0x33 PUSH1 0x49 JUMP JUMPDEST PUSH1 0x40 MLOAD PUSH1 0x40 SWAP4 SWAP3 SWAP2 SWAP1 PUSH1 0xC1 JUMP JUMPDEST PUSH1 0x40 MLOAD DUP1 SWAP2 SUB SWAP1 RETURN JUMPDEST PUSH1 0x0 DUP1 PUSH1 0x0 DUP1 CALLER SWAP1 POP PUSH1 0x0 TIMESTAMP SWAP1 POP PUSH1 0x0 NUMBER SWAP1 POP DUP3 DUP3 DUP3 SWAP6 POP SWAP6 POP SWAP6 POP POP POP POP SWAP1 SWAP2 SWAP3 JUMP JUMPDEST PUSH1 0x0 PUSH20 0xFFFFFFFFFFFFFFFFFFFFFFFFFFFFFFFFFFFFFFFF DUP3 AND SWAP1 POP SWAP2 SWAP1 POP JUMP JUMPDEST PUSH1 0x0 PUSH1 0x96 DUP3 PUSH1 0x6D JUMP JUMPDEST SWAP1 POP SWAP2 SWAP1 POP JUMP JUMPDEST PUSH1 0xA4 DUP2 PUSH1 0x8D JUMP JUMPDEST DUP3 MSTORE POP POP JUMP JUMPDEST PUSH1 0x0 DUP2 SWAP1 POP SWAP2 SWAP1 POP JUMP JUMPDEST PUSH1 0xBB DUP2 PUSH1 0xAA JUMP JUMPDEST DUP3 MSTORE POP POP JUMP JUMPDEST PUSH1 0x0 PUSH1 0x60 DUP3 ADD SWAP1 POP PUSH1 0xD4 PUSH1 0x0 DUP4 ADD DUP7 PUSH1 0x9D JUMP JUMPDEST PUSH1 0xDF PUSH1 0x20 DUP4 ADD DUP6 PUSH1 0xB4 JUMP JUMPDEST PUSH1 0xEA PUSH1 0x40 DUP4 ADD DUP5 PUSH1 0xB4 JUMP JUMPDEST SWAP5 SWAP4 POP POP POP POP JUMP INVALID LOG2 PUSH5 0x6970667358 0x22 SLT KECCAK256 MSTORE SWAP11 COINBASE 0xC0 0xDB 0x4E DUP6 SWAP4 SWAP15 0xD1 0x21 PUSH9 0xFFC9C84F99EE538065 EXP XOR DUP9 OR 0xFB 0xA8 0x2E COINBASE DUP4 0xA8 0xEA PUSH5 0x736F6C6343 STOP ADDMOD ADDMOD STOP CALLER "
				},
				"gasEstimates": {
					"creation": {
						"codeDepositCost": "59200",
						"executionCost": "111",
						"totalCost": "59311"
					},
					"external": {
						"globalVars()": "infinite"
					}
				},
				"methodIdentifiers": {
					"globalVars()": "7e6230f3"
				}
			},
			"storageLayout": {
				"storage": [],
				"types": null
			},
			"userdoc": {
				"kind": "user",
				"methods": {},
				"version": 1
			}
		}
	}
}