{
	"data": {
		"bytecode": {
			"linkReferences": {},
			"object": "608060405234801561001057600080fd5b50610151806100206000396000f3fe608060405234801561001057600080fd5b506004361061002b5760003560e01c8063938b9ceb14610030575b600080fd5b61003861003a565b005b60005b600a81101561007657600381141561005457610063565b600581141561006257610076565b5b808061006e906100d2565b91505061003d565b5060005b600a81101561009657808061008e906100d2565b91505061007a565b50565b7f4e487b7100000000000000000000000000000000000000000000000000000000600052601160045260246000fd5b6000819050919050565b60006100dd826100c8565b91507fffffffffffffffffffffffffffffffffffffffffffffffffffffffffffffffff8214156101105761010f610099565b5b60018201905091905056fea2646970667358221220cf60498618f4e2adfad85485294641173534d42f20437b17e57633ed59ad3edc64736f6c63430008080033",
			"opcodes": "PUSH1 0x80 PUSH1 0x40 MSTORE CALLVALUE DUP1 ISZERO PUSH2 0x10 JUMPI PUSH1 0x0 DUP1 REVERT JUMPDEST POP PUSH2 0x151 DUP1 PUSH2 0x20 PUSH1 0x0 CODECOPY PUSH1 0x0 RETURN INVALID PUSH1 0x80 PUSH1 0x40 MSTORE CALLVALUE DUP1 ISZERO PUSH2 0x10 JUMPI PUSH1 0x0 DUP1 REVERT JUMPDEST POP PUSH1 0x4 CALLDATASIZE LT PUSH2 0x2B JUMPI PUSH1 0x0 CALLDATALOAD PUSH1 0xE0 SHR DUP1 PUSH4 0x938B9CEB EQ PUSH2 0x30 JUMPI JUMPDEST PUSH1 0x0 DUP1 REVERT JUMPDEST PUSH2 0x38 PUSH2 0x3A JUMP JUMPDEST STOP JUMPDEST PUSH1 0x0 JUMPDEST PUSH1 0xA DUP2 LT ISZERO PUSH2 0x76 JUMPI PUSH1 0x3 DUP2 EQ ISZERO PUSH2 0x54 JUMPI PUSH2 0x63 JUMP JUMPDEST PUSH1 0x5 DUP2 EQ ISZERO PUSH2 0x62 JUMPI PUSH2 0x76 JUMP JUMPDEST JUMPDEST DUP1 DUP1 PUSH2 0x6E SWAP1 PUSH2 0xD2 JUMP JUMPDEST SWAP2 POP POP PUSH2 0x3D JUMP JUMPDEST POP PUSH1 0x0 JUMPDEST PUSH1 0xA DUP2 LT ISZERO PUSH2 0x96 JUMPI DUP1 DUP1 PUSH2 0x8E SWAP1 PUSH2 0xD2 JUMP JUMPDEST SWAP2 POP POP PUSH2 0x7A JUMP JUMPDEST POP JUMP JUMPDEST PUSH32 0x4E487B7100000000000000000000000000000000000000000000000000000000 PUSH1 0x0 MSTORE PUSH1 0x11 PUSH1 0x4 MSTORE PUSH1 0x24 PUSH1 0x0 REVERT JUMPDEST PUSH1 0x0 DUP2 SWAP1 POP SWAP2 SWAP1 POP JUMP JUMPDEST PUSH1 0x0 PUSH2 0xDD DUP3 PUSH2 0xC8 JUMP JUMPDEST SWAP2 POP PUSH32 0xFFFFFFFFFFFFFFFFFFFFFFFFFFFFFFFFFFFFFFFFFFFFFFFFFFFFFFFFFFFFFFFF DUP3 EQ ISZERO PUSH2 0x110 JUMPI PUSH2 0x10F PUSH2 0x99 JUMP JUMPDEST JUMPDEST PUSH1 0x1 DUP3 ADD SWAP1 POP SWAP2 SWAP1 POP JUMP INVALID LOG2 PUSH5 0x6970667358 0x22 SLT KECCAK256 0xCF PUSH1 0x49 DUP7 XOR DELEGATECALL 0xE2 0xAD STATICCALL 0xD8 SLOAD DUP6 0x29 CHAINID COINBASE OR CALLDATALOAD CALLVALUE 0xD4 0x2F KECCAK256 NUMBER PUSH28 0x17E57633ED59AD3EDC64736F6C634300080800330000000000000000 "
		},
		"gasEstimates": {
			"creation": {
				"codeDepositCost": "67400",
				"executionCost": "117",
				"totalCost": "67517"
			},
			"external": {
				"loops()": "infinite"
			}
		},
		"methodIdentifiers": {
			"loops()": "938b9ceb"
		}
	},
	"abi": [
		{
			"inputs": [],
			"name": "loops",
			"outputs": [],
			"stateMutability": "pure",
			"type": "function"
		}
	]
}